S01700004763634170706C69636174696F6E312E737265635B
S11300000C9434000C943E000C943E000C943E007E
S11300100C943E000C943E000C943E000C943E0064
S11300200C943E000C943E000C943E000C943E0054
S11300300C943E000C943E000C943E000C943E0044
S11300400C943E000C943E000C943E000C943E0034
S11300500C943E000C943E000C943E000C943E0024
S11300600C943E000C943E0011241FBECFEFD8E048
S1130070DEBFCDBF0E9440000C945A000C940000D7
S1130080259A2D98209A289852985A9A20E291E01D
S11300904A99FECF85B1822785B985B1892785B96B
S11300A03FE946E881E0315040408040E1F700C03C
S10B00B00000EECFF894FFCF2D
S9030000FC
